:020000040800F2
:1000000008D9002021340108A5300108A7300108D3
:10001000A9300108AB300108AD3001080000000034
:10002000000000000000000000000000AF300108E8
:10003000B130010800000000B3300108B5300108FC
:10004000CD340108D1340108D5340108D934010870
:10005000DD340108E1340108E5340108E934010820
:10006000ED340108F1340108F5340108F9340108D0
:10007000FD3401080135010805350108093501087D
:100080000D3501081135010815350108193501082C
:100090001D350108213501082535010829350108DC
:1000A0002D3501083135010835350108393501088C
:1000B0003D3501084135010845350108493501083C
:1000C0004D350108513501085535010859350108EC
:1000D0005D3501086135010865350108693501089C
:1000E000C53001086D350108713501087535010805
:1000F000793501087D35010881350108853501080C
:10010000893501088D3501089135010895350108BB
:10011000993501089D350108A1350108DB17010853
:10012000A5350108A9350108AD350108B13501082B
:10013000B5350108B9350108BD350108C1350108DB
:10014000C5350108C9350108CD350108D13501088B
:10015000D5350108D935010893070108DD350108B7
:10016000E1350108E5350108E9350108ED350108FB
:10017000F1350108F5350108F935010800000000E6
:10018000FD35010801360108053601080936010868
:100190000D3601081136010815360108000000006F
:1001A000193601081D3601082136010879CE79CEAD
:1001B00079CE79CE79CE79CE79CE79CE79CE79CE07
:1001C00079CE79CE79CE79CE79CE79CE79CE79CEF7
:1001D00079CE79CE79CE79CE79CE79CE79CE79CEE7
:1001E00079CE79CE79CE79CE79CE79CE79CE79CED7
:101AC00079CE79CE79CE79CE79CE79CE79CEEF7BBB
:101AD0000000450179CE79CE79CE79CE79CE79CE16
:101AE00079CE79CE79CE79CE79CE79CE79CE79CEBE
:101AF00079CE79CE79CE79CE79CE79CE79CE79CEAE
:101B000079CE79CE79CE79CE79CE79CE79CE79CE9D
:101B100079CE79CE79CE79CE79CE79CE79CE79CE8D
:101B200079CE79CE79CE79CE79CE79CE79CE79CE7D
:101B300079CE79CE79CE79CE79CE79CE79CE79CE6D
:101B400079CE79CE79CE79CE79CE79CE79CE79CE5D
:101B500079CE79CE79CE79CE79CE79CE79CE79CE4D
:101B600079CE79CE79CE79CE79CE79CE79CE79CE3D
:101B700079CE79CE79CE79CE79CE79CE79CE79CE2D
:101B800079CE79CE79CE79CE79CE79CE79CE79CE1D
:101B900079CE79CE79CE79CE79CE79CE79CE79CE0D
:101BA00079CE79CE79CE79CE79CE79CE79CE79CEFD
:101BB00079CE79CE79CE79CE79CE79CE79CE79CEED
:101BC00079CE79CE79CE79CE79CE79CE79CE79CEDD
:101BD00079CE79CE79CE79CE79CE79CE79CE79CECD
:101BE00079CE79CE79CE79CE79CE79CE79CE79CEBD
:101BF00079CE79CE79CE79CE79CE79CE79CE79CEAD
:101C000079CE79CE79CE79CE79CE79CE79CE40297A
:101C10000000050079CE79CE79CE79CE79CE79CE15
:101C200079CE79CE79CE79CE79CE79CE79CE79CE7C
:101C300079CE79CE79CE79CE79CE79CE79CE79CE6C
:101C400079CE79CE79CE79CE79CE79CE79CE79CE5C
:101C500079CE79CE79CE79CE79CE79CE79CE79CE4C
:101C600079CE79CE79CE79CE79CE79CE79CE79CE3C
:101C700079CE79CE79CE79CE79CE79CE79CE79CE2C
:101C800079CE4029050079CE79CE79CE79CE79CE3C
:101C900079CE79CE79CE79CE79CE79CE79CE79CE0C
:101CA00079CE79CE79CE79CE79CE79CE79CE79CEFC
:101CB00079CE79CE79CE79CE79CE79CE79CE79CEEC
:101CC00079CE79CE79CE79CE79CE79CE79CE79CEDC
:101CD00079CE79CE79CE79CE79CE79CE79CE79CECC
:101CE00079CE79CE79CE79CE79CE79CE79CE79CEBC
:101CF00079CE79CE79CE79CE79CE79CE79CE79CEAC
:101D000079CE79CE79CE79CE79CE79CE79CE79CE9B
:101D100079CE79CE79CE79CE79CE00280000EF7BCE
:101D200079CE79CE79CE79CE79CE79CE79CE79CE7B
:101D300079CE79CE40290000450179CE79CE79CE91
:101D400079CE79CE79CE79CE79CE79CE79CE402939
:101D50000000050079CE79CE79CE79CE79CE79CED4
:101D600079CE79CE79CE79CE79CE79CE79CE79CE3B
:101D700079CE79CE79CE79CE79CE79CE79CE79CE2B
:101D800079CE79CE79CE79CE79CE79CE79CE79CE1B
:101D900079CE79CE79CE79CE79CE79CE79CE79CE0B
:101DA00079CE79CE79CE79CE452900280000000081
:101DB000000000004501EF7B79CE79CE79CE79CE57
:101DC000EF7B0000050079CE79CE79CE79CE79CE41
:101DD00079CE79CE79CE79CE79CE79CE79CE79CECB
:101DE00079CE79CE79CE79CE79CE79CE79CE79CEBB
:101DF00079CE79CE79CE79CE79CE79CE79CE79CEAB
:101E000079CE79CE79CE79CE79CE79CE79CE79CE9A
:101E100079CE79CE79CE79CE79CE79CE79CE79CE8A
:101E200079CE79CE79CE79CE79CE79CE79CE79CE7A
:101E300079CE79CEEF7B45294029000000000000D3
:101E400000000000000000004529EF7B79CE79CE2C
:101E500079CE79CE79CE79CE402900000000EF7B93
:101E600079CE79CE79CE79CE79CE79CE79CE79CE3A
:101E700079CE79CE40290000050079CE79CE79CE91
:101E800079CE79CE79CE79CE79CE79CE79CE4029F8
:101E90000000450179CE79CE79CE79CE79CE79CE52
:101EA00079CE79CE79CE79CE79CE79CE79CE79CEFA
:101EB00079CE79CE79CE79CE79CE79CE79CE79CEEA
:101EC00079CE79CE79CE79CE79CE79CE79CE79CEDA
:101ED00079CE79CE79CE79CE79CE79CE79CE79CECA
:101EE00079CEEF7B402900000000000000000000D8
:101EF0000000000000000000EF7B79CE79CE79CEA3
:101F000040290000050079CE79CE79CE79CE79CE00
:101F100079CE79CE79CE79CE79CE79CE79CE79CE89
:101F200079CE79CE79CE79CE79CE79CE79CE79CE79
:101F300079CE79CE79CE79CE79CE79CE79CE79CE69
:101F400079CE79CE79CE79CE79CE79CE79CE79CE59
:101F500079CE79CE79CE79CE79CE79CE79CE79CE49
:101F600079CE79CE79CE79CE79CE79CE79CEEF7B16
:101F700040290000000000000000000000000000F8
:101F8000000000000000000000000000050079CE05
:101F900079CE79CE79CE79CE40290000050079CE70
:101FA00079CE79CE79CE79CE79CE79CE79CE79CEF9
:101FB00079CE79CE40290000450179CE79CE79CE0F
:101FC00079CE79CE79CE79CE79CE79CE79CE0028F8
:101FD0000000450179CE79CE79CE79CE79CE79CE11
:101FE00079CE79CE79CE79CE79CE79CE79CE79CEB9
:101FF00079CE79CE79CE79CE79CE79CE79CE79CEA9
:1020000079CE79CE79CE79CE79CE79CE79CE79CE98
:1020100079CE79CE79CE79CE79CE79CE79CE79CE88
:10202000EF7B0000000000004529EF7B79CE79CEE0
:1020300079CEEF7B00280000EF7B79CE79CE79CE88
:1020400040290000450179CE79CE79CE79CE79CE7E
:1020500079CE79CE79CE79CE79CE79CE79CE79CE48
:1020600079CE79CE79CE79CE79CE79CE79CE79CE38
:1020700079CE79CE79CE79CE79CE79CE79CE79CE28
:1020800079CE79CE79CE79CE79CE79CE79CE79CE18
:1020900079CE79CE79CE79CE79CE79CE79CE79CE08
:1020A00079CE79CE79CE79CE79CE79CE79CE002817
:1020B0000000000000004501EF7BEF7B79CE79CE78
:1020C00079CE79CE79CE79CEEF7B0028000045011C
:1020D00079CE79CE79CE79CE79CE79CE79CE79CEC8
:1020E00079CE79CE79CE79CE79CE79CE79CE79CEB8
:1020F00079CE79CE00280000450179CE79CE79CE0F
:1021000079CE79CE79CE79CE79CE79CE79CE0028B6
:102110000000EF7B79CE79CE79CE79CE79CE79CEAB
:1021200079CE79CE79CE79CE79CE79CE79CE79CE77
:1021300079CE79CE79CE79CE79CE79CE79CE79CE67
:1021400079CE79CE79CE79CE79CE79CE79CE79CE57
:1021500079CE79CE79CE79CE79CE79CE79CEEF7B24
:1021600000000000450179CE79CE79CE79CE79CEC6
:1021700079CE79CEEF7B050079CE79CE79CE79CE46
:1021800040290000450179CE79CE79CE79CE79CE3D
:1021900079CE79CE79CE79CE79CE79CE79CE79CE07
:1021A00079CE79CE79CE79CE79CE79CE79CE79CEF7
:1021B00079CE79CE79CE79CE79CE79CE79CE79CEE7
:1021C00079CE79CE79CE79CE79CE79CE79CE79CED7
:1021D00079CE79CE79CE79CE79CE79CE79CE79CEC7
:1021E00079CE79CE79CE79CE79CE79CEEF7B0000DB
:1021F0004501EF7B4029050079CE79CE79CE79CEA5
:1022000079CE79CE79CE79CE79CEEF7B00004501BB
:1022100079CE79CE79CE79CE79CE79CE79CE79CE86
:1022200079CE79CE79CE79CE79CE79CE79CE79CE76
:1022300079CE79CE00280000EF7B79CE79CE79CEA9
:1022400079CE79CE79CE79CE79CE79CE79CE002875
:102250000000EF7B79CE79CE79CE79CE79CE79CE6A
:1022600079CE79CE79CE79CE79CE79CE79CE79CE36
:1022700079CE79CE79CE79CE79CE79CE79CE79CE26
:1022800079CE79CE79CE79CE79CE79CE79CE79CE16
:1022900079CE79CE79CE79CE79CE79CE79CE002825
:1022A0000000450179CE79CE79CE79CE79CE79CE3E
:1022B00079CE79CE79CE79CE79CE79CE79CE79CEE6
:1022C00040290000EF7B79CE79CE79CE79CE79CED8
:1022D00079CE79CE79CE79CE79CE79CE79CE79CEC6
:1022E00079CE79CE79CE79CE79CE79CE79CE79CEB6
:1022F00079CE79CE79CE79CE79CE79CE79CE79CEA6
:1023000079CE79CE79CE79CE79CE79CE79CE79CE95
:1023100079CE79CE79CE79CE79CE79CE79CE79CE85
:1023200079CE79CE79CE79CE79CE79CE79CE79CE75
:1023300079CEEF7B0000050079CE79CE79CE79CECB
:1023400079CE79CE79CE79CE79CE40290000EF7B57
:1023500079CE79CE79CE79CE79CE79CE79CE79CE45
:1023600079CE79CE79CE79CE79CE79CE79CE79CE35
:1023700079CE79CE00280000EF7B79CE79CE79CE68
:1023800079CE79CE79CE79CE79CE79CEEF7B000039
:10239000050079CE79CE79CE79CE79CE79CE79CE47
:1023A00079CE79CE79CE79CE79CE79CE79CE79CEF5
:1023B00079CE79CE79CE79CE79CE79CE79CE79CEE5
:1023C00079CE79CE79CE79CE79CE79CE79CE79CED5
:1023D00079CE79CE79CE79CE79CE79CE79CE0028E4
:1023E0000000EF7B79CE79CE79CE79CE79CE79CED9
:1023F00079CE79CE79CE79CE79CE79CE79CE79CEA5
:1024000040290000EF7B79CE79CE79CE79CE79CE96
:1024100079CE79CE79CE79CE79CE79CE79CE79CE84
:1024200079CE79CE79CE79CE79CE79CE79CE79CE74
:1024300079CE79CE79CE79CE79CE79CE79CE79CE64
:1024400079CE79CE79CE79CE79CE79CE79CE79CE54
:1024500079CE79CE79CE79CE79CE79CE79CE79CE44
:1024600079CE79CE79CE79CE79CE79CE79CE79CE34
:1024700079CE40290000450179CE79CE79CE79CE4A
:1024800079CE79CE79CE79CEEF7B0000050079CE7A
:1024900079CE79CE79CE79CE79CE79CE79CE79CE04
:1024A00079CE79CE79CE79CE79CE79CE79CE79CEF4
:1024B00079CEEF7B0000050079CE79CE79CE79CE4A
:1024C00079CE79CE79CE79CE79CE79CEEF7B0000F8
:1024D000050079CE79CE79CE79CE79CE79CE79CE06
:1024E00079CE79CE79CE79CE79CE79CE79CEEF7B91
:1024F000050079CE79CE79CE79CE79CE79CE79CEE6
:1025000079CE79CE79CE79CE452900000000000041
:10251000EF7B79CE79CE79CE79CE79CE79CE40293E
:102520000000450179CE79CE79CE79CE79CE79CEBB
:1025300079CE79CE79CE79CE79CE79CE79CE79CE63
:1025400040290000EF7B79CE79CE79CE79CE79CE55
:1025500079CE79CE79CE79CE79CE79CE79CE79CE43
:1025600079CE79CE79CE79CE79CE79CE79CE45290C
:10257000000000000000EF7B79CE79CE79CE79CED5
:1025800079CE79CE79CE79CEEF7B0000EF7B79CE14
:1025900079CE79CE79CE79CE79CE79CE79CE79CE03
:1025A00079CE79CE79CE79CE79CE79CE79CE79CEF3
:1025B00079CE40290000EF7B79CE79CE79CE79CEE5
:1025C00079CE79CE79CE402900000000EF7B79CE1C
:1025D00079CE79CE79CE79CE79CE79CE79CE79CEC3
:1025E00079CE79CE79CE79CE79CE79CE79CE79CEB3
:1025F00079CEEF7B0000050079CE79CE79CE79CE09
:1026000079CE79CE79CE79CE79CE79CE40290000B7
:10261000450179CE79CE79CE79CE79CE40290000A8
:10262000EF7B79CE79CE79CE79CE79CE79CE40292D
:10263000050079CE79CE79CE79CE79CE79CE79CEA4
:1026400079CE79CEEF7B002800000000000000006A
:10265000050079CE79CE79CE79CE79CE79CEEF7B61
:1026600000000000450179CE79CE79CE79CE79CEC1
:1026700079CE79CE79CE79CE79CE79CE79CE79CE22
:102680000028050079CE79CE79CE79CE79CEEF7B50
:1026900000280000EF7B79CE79CE79CE79CE79CE45
:1026A00079CE79CE79CE79CE79CEEF7B0028000035
:1026B000000000000000050079CE79CE79CE79CEF9
:1026C00079CE79CE79CE79CE00280000EF7B79CE15
:1026D00079CE79CE402900000000EF7B79CE79CE0B
:1026E00079CE79CE79CE79CE79CE79CE79CE79CEB2
:1026F00079CE0028050079CE79CE79CE79CE79CE03
:1027000079CE79CE402900000000EF7B79CE79CEDA
:1027100079CE79CE79CEEF7B0000EF7B79CE79CE82
:1027200079CE79CE79CE79CE79CE79CE79CE79CE71
:1027300079CE40290000050079CE79CE79CE79CEC8
:10274000EF7BEF7BEF7BEF7B452900000000000073
:10275000450179CE79CE79CE79CE79CE00280000A8
:10276000EF7B79CE79CE79CE79CE79CEEF7B000032
:10277000450179CE79CE79CE79CE79CE79CE79CE22
:1027800079CEEF7B00000000450179CE79CE00289C
:10279000050079CE79CE79CE79CE79CE79CE79CE43
:1027A000EF7B0000000000004501EF7B79CE79CE81
:1027B00079CE79CE79CE79CE79CE79CE79CE79CEE1
:1027C0000028050079CE79CE79CE79CE4029000057
:1027D00000000000450179CE79CE79CE79CE79CE50
:1027E00079CE79CE79CE79CEEF7B0000000045011D
:1027F00079CE79CE0028050079CE79CE79CE79CE02
:1028000079CE79CE79CEEF7B0000050079CE79CEF6
:1028100079CE0028000000000000050079CE79CEB6
:1028200079CE79CE79CE79CE79CE79CE79CE452949
:10283000EF7B0000050079CE79CE79CE79CE79CEC6
:10284000EF7B000000000500EF7B79CE79CE79CEDA
:1028500079CE79CE79CE00280000EF7B79CE79CE83
:1028600079CE79CE79CE79CE79CE79CE79CE79CE30
:1028700079CE4029000000000000000000000000A8
:102880000000000000000000000000000000000048
:10289000EF7B79CE79CE79CE79CE79CE0028000043
:1028A000EF7B79CE79CE79CE79CE79CE40290000F2
:1028B000450179CE79CE79CE79CE79CE79CE79CEE1
:1028C000EF7B00000000EF7B79CE79CE79CE002837
:1028D000450179CE79CE79CE79CE79CE79CE79CEC1
:1028E000EF7B000000280000000000000000050051
:1028F000EF7B79CE79CE79CE79CE79CE79CE79CE7D
:102900000028050079CE79CE79CE40290000450116
:10291000EF7B0000050079CE79CE79CE79CE79CEE5
:1029200079CE79CE79CEEF7B00000000EF7B79CEB7
:1029300079CE79CE0028450179CE79CE79CE79CE7F
:1029400079CE79CE79CE40290000450179CE79CE75
:1029500000280000EF7B79CE00280000EF7B79CEC5
:1029600079CE79CE79CE79CE79CE79CE402905004F
:10297000EF7B0000450179CE79CE79CEEF7B000068
:1029800000000000EF7B79CE79CE79CE79CE79CE7A
:1029900079CE79CEEF7B00000000EF7B79CE79CE47
:1029A00079CE79CE79CE79CE79CE79CE79CE79CEEF
:1029B00079CE4029000000004501EF7BEF7B79CE06
:1029C00079CE79CE79CE79CE79CE79CE0028000035
:1029D000EF7B79CE79CE79CE79CE79CE00280500FD
:1029E00079CE79CE79CE79CE79CEEF7B000000001A
:1029F000450179CE79CE79CE79CE79CE79CE79CEA0
:102A000000000000450179CE79CE79CEEF7B000041
:102A1000450179CE79CE79CE79CE79CE79CE79CE7F
:102A20000028450179CEEF7B40290000000000001E
:102A300000000500EF7B79CE79CE79CE79CE79CEC4
:102A40000028450179CE79CE40290000450179CE94
:102A500079CE0028050079CE79CE79CE79CE79CE9F
:102A600079CE79CEEF7B00000000450179CE79CE9A
:102A700079CEEF7B0000450179CE79CE79CE79CE43
:102A800079CE79CE79CE00000000EF7B79CE402957
:102A90000000EF7B79CE79CE40290000EF7B79CE24
:102AA00079CE79CE79CE79CE79CEEF7B0000EF7BEF
:102AB000EF7B0000450179CE4029000000000000B6
:102AC000450179CE79CE79CE79CE79CE79CE79CECF
:102AD00079CE79CEEF7B0000050079CE79CE79CE24
:102AE00079CE79CE79CE79CE79CE79CE79CE79CEAE
:102AF00079CE00280000EF7B79CE79CE79CE79CEE1
:102B000079CE79CE79CE79CE79CE79CE00280000F3
:102B1000EF7B79CE79CE79CE79CE79CE00280500BB
:102B200079CE79CE79CE79CE79CE402900000000D9
:102B3000450179CE79CE79CE79CE79CEEF7B000082
:102B40000000050079CE79CE79CE79CEEF7B0000FA
:102B5000EF7B79CE79CE79CE79CE79CEEF7B002816
:102B6000050079CE79CE79CE79CE79CE79CE452948
:102B7000000000000000EF7B79CE79CE79CEEF7BAC
:102B80000000450179CEEF7B0000450179CE79CE7A
:102B900079CE0028050079CE79CE79CE79CE79CE5E
:102BA00079CEEF7B00000000050079CE79CE79CE9A
:102BB00079CEEF7B0000EF7B79CE79CE79CE79CEDE
:102BC00079CEEF7B002800000000EF7B4029000059
:102BD000450179CE79CE79CE40290000EF7B79CEC0
:102BE00079CE79CE79CE79CE40290000450179CED3
:102BF0004029000000000000000000004501EF7BBC
:102C000079CE79CE79CE79CE79CE79CE79CE79CE8C
:102C100079CE79CEEF7B0000050079CE79CE79CEE2
:102C200079CE79CE79CE79CEEF7B79CE79CE79CE49
:102C300079CE0028050079CE79CE79CE79CE79CEBD
:102C400079CE79CE79CE79CE79CE79CE00280000B2
:102C5000EF7B79CE79CE79CE79CEEF7B000045013E
:102C600079CE79CE79CE79CEEF7B0000EF7B00284C
:102C7000050079CE79CE79CE79CEEF7B00000000C9
:102C80000000EF7B79CE79CE79CE79CE0028000096
:102C9000450179CE79CE79CE79CEEF7B0000050063
:102CA00079CE79CE79CE79CE79CE79CE79CE79CEEC
:102CB00079CE00280000450179CE79CE79CEEF7B20
:102CC00000004501EF7B0000450179CE79CE79CE39
:102CD00079CE40290000EF7B79CE79CE79CE79CEBE
:102CE0004029000000000000EF7B79CE79CE79CE3C
:102CF00079CE00280000450179CE79CE79CE79CE03
:102D0000EF7B0000050000280500452900000500B4
:102D100079CE79CE79CE79CEEF7B0000450179CEA0
:102D200079CE79CE79CE40290000450179CE79CE91
:102D30004029000000000000452979CE79CE79CEE7
:102D400079CE79CE79CE79CE79CE79CE79CE79CE4B
:102D500079CE79CEEF7B0000050079CE79CE79CEA1
:102D600079CE79CE79CEEF7B000079CE79CE79CE4F
:102D7000EF7B0000050079CE79CE79CE79CE79CE81
:102D800079CE79CE79CE79CE79CEEF7B0000050071
:102D900079CE79CE79CE79CE79CEEF7B0000EF7BFC
:102DA00079CE79CE79CEEF7B0000450179CE4029EE
:102DB0000000450179CEEF7B0028000000000000F4
:102DC000050079CE79CE79CE79CE40290000000079
:102DD0000000EF7B79CEEF7B40290000050079CE23
:102DE00079CE79CE79CE79CE79CE79CE79CE79CEAB
:102DF00079CE40290000450179CE79CE79CEEF7B9E
:102E00000000EF7B0028050079CE79CE79CE79CE0F
:102E100079CE40290000450179CE79CE45290000C0
:102E2000000045010028050079CE79CE79CE79CE13
:102E30004029000000000000EF7B79CEEF7B4029A5
:102E40000000050079CE002800000000050079CEC2
:102E500079CE79CE79CE79CEEF7B00000500EF7B7D
:102E600079CEEF7B00280000450179CE79CE79CE6E
:102E700040290000452979CE79CE79CE79CE79CE18
:102E800079CE79CE79CE79CE79CE79CE79CE79CE0A
:102E900079CE79CEEF7B0000050079CE79CE79CE60
:102EA00079CE79CEEF7B0000050079CE79CE79CE50
:102EB000EF7B0000450179CE79CE79CE79CE79CEFF
:102EC00079CE79CE79CE79CE79CEEF7B0000050030
:102ED00079CE79CE79CE79CE79CE40290000EF7BBC
:102EE00079CE79CEEF7B0000050079CE79CEEF7BED
:102EF000000000000000000000004529EF7B0000FA
:102F0000450179CE79CE79CE40290000EF7B0028AB
:102F100000000000000000000000450179CE79CEDD
:102F200079CE79CE79CE79CE79CE79CE79CE79CE69
:102F3000EF7B00000000EF7B79CE79CE79CE40297F
:102F4000000000000000EF7B79CE79CE79CE79CEFB
:102F500079CEEF7B000000000000000000000500BB
:102F6000EF7BEF7B0000450179CE79CE79CE402909
:102F70000000EF7B002800000000000000000000BF
:102F8000450179CE79CE002800000000EF7B79CE94
:102F900079CE79CE79CE79CE79CE40290000000065
:102FA000000000000000EF7B79CE79CE79CE79CE9B
:102FB00040290000EF7B79CE79CE79CE79CE79CEDB
:102FC00079CE79CE79CE79CE79CE79CE79CE79CEC9
:102FD00079CE79CEEF7B0000050079CE79CE79CE1F
:102FE00079CEEF7B0000050079CE79CE79CE79CE0F
:102FF00040290000450179CE79CE79CE79CE79CEBF
:1030000079CE79CE79CE79CE79CEEF7B00000500EE
:1030100079CE79CE79CE79CE79CE40290000EF7B7A
:1030200079CE45290000050079CE79CE79CE79CECA
:103030004529000000004501EF7B79CEEF7B0000C1
:10304000450179CEEF7B00280000EF7B79CE79CE69
:103050004029000000000500EF7B79CE79CE79CEC3
:1030600079CE79CE79CE79CE79CE79CEEF7B4029E3
:1030700000000000EF7B79CE79CE79CE79CE402961
:1030800000000000450179CE79CE79CE79CE79CE97
:1030900079CE79CE4029000000000000EF7B79CE88
:1030A00079CEEF7B0000450179CEEF7B0028000050
:1030B000EF7B79CE79CE4029000000000500EF7B40
:1030C00079CE79CE79CE40290000EF7B79CE79CECA
:1030D00079CE79CE79CE79CE79CE79CE002800001E
:1030E0000000450179CE79CE79CE79CE79CE79CEF0
:1030F00040290000450179CE79CE79CE79CE79CEBE
:1031000079CE79CE79CE79CE79CE79CE79CE79CE87
:1031100079CE79CE79CE00280000450179CEEF7BBB
:1031200000280000050079CE79CE79CE79CE79CE0F
:1031300000280000450179CE79CE79CE79CE79CEBE
:1031400079CE79CE79CE79CE79CE402900000500AE
:1031500079CE79CE79CE79CE79CE402900000000A3
:10316000000000000500EF7B79CE79CE79CE79CED4
:1031700079CE79CE79CE79CE79CE79CE79CE002836
:103180000000000000000500EF7B79CE79CE79CEFB
:1031900079CE79CE79CE79CE79CE79CEEF7B050016
:1031A000EF7B79CE79CE79CEEF7B0028000000004E
:1031B0000500EF7B79CE79CE79CE79CE79CE4029D4
:1031C0000000050079CE79CE79CE79CE79CE79CE50
:1031D00079CE79CE79CE79CE79CE79CE79CE79CEB7
:1031E00079CE79CE00280000000000000500EF7BBA
:1031F00079CE79CE79CE79CE79CE79CE79CE79CE97
:1032000079CE79CE79CE79CE79CE79CE79CE79CE86
:1032100079CE79CE79CE79CE79CE79CE79CE79CE76
:1032200079CE79CE79CE79CE79CE79CE79CE79CE66
:1032300040290000450179CE79CE79CE79CE79CE7C
:1032400079CE79CE79CE79CE79CE79CE79CE79CE46
:1032500079CE79CE79CEEF7B00000000000000002F
:103260000000450179CE79CE79CE79CE79CE79CE6E
:1032700000280000450179CE79CE79CE79CE79CE7D
:1032800079CE79CE79CE79CE79CE4029000005006D
:1032900079CE79CE79CE79CE79CE79CE002800005C
:1032A0000000452979CE79CE79CE79CE79CE79CE06
:1032B00079CE79CE79CE79CE79CE79CE79CEEF7BB3
:1032C00000000000452979CE79CE79CE79CE79CE2D
:1032D00079CE79CE79CE79CE79CE79CE40290000DB
:1032E0000000000000000000000000000000EF7B74
:1032F00079CE79CE79CE79CE79CE79CE79CE0028B5
:103300000000450179CE79CE79CE79CE79CE79CECD
:1033100079CE79CE79CE79CE79CE79CE79CE79CE75
:1033200079CE79CEEF7B00000000452979CE79CEA9
:1033300079CE79CE79CE79CE79CE79CE79CE79CE55
:1033400079CE79CE79CE79CE79CE79CE79CE79CE45
:1033500079CE79CE79CE79CE79CE79CE79CE79CE35
:1033600079CE79CE79CE79CE79CE79CE79CE79CE25
:1033700040290000450179CE79CE79CE79CE79CE3B
:1033800079CE79CE79CE79CE79CE79CE79CE79CE05
:1033900079CE79CE79CE79CE45290000000005009E
:1033A000EF7B79CE79CE79CE79CE79CE79CE79CEC2
:1033B000EF7B0000EF7B79CE79CE79CE79CE79CED6
:1033C00079CE79CE79CE79CE79CEEF7B0000EF7BC6
:1033D00079CE79CE79CE79CE79CE79CE79CE79CEB5
:1033E00079CE79CE79CE79CE79CE79CE79CE79CEA5
:1033F00079CE79CE79CE79CE79CE79CE79CE79CE95
:1034000079CE79CE79CE79CE79CE79CE79CE79CE84
:1034100079CE79CE79CE79CE79CE79CE79CE402952
:1034200000000000000005004529EF7B79CE79CE31
:1034300079CE79CE79CE79CE79CE79CE79CE402932
:10344000050079CE79CE79CE79CE79CE79CE79CE86
:1034500079CE79CE79CE79CE79CE79CE79CE79CE34
:1034600079CE79CE79CE79CE79CE79CE79CE79CE24
:1034700079CE79CE79CE79CE79CE79CE79CE79CE14
:1034800079CE79CE79CE79CE79CE79CE79CE79CE04
:1034900079CE79CE79CE79CE79CE79CE79CE79CEF4
:1034A00079CE79CE79CE79CE79CE79CE79CE79CEE4
:1034B00040290000450179CE79CE79CE79CE79CEFA
:1034C00079CE79CE79CE79CE79CE79CE79CE79CEC4
:1034D00079CE79CE79CE79CE79CE79CE79CE79CEB4
:1034E00079CE79CE79CE79CE79CE79CE79CE79CEA4
:1034F00079CE79CE79CE79CE79CE79CE79CE79CE94
:1035000079CE79CE79CE79CE79CE79CE79CE79CE83
:1035100079CE79CE79CE79CE79CE79CE79CE79CE73
:1035200079CE79CE79CE79CE79CE79CE79CE79CE63
:1035300079CE79CE79CE79CE79CE79CE79CE79CE53
:1035400079CE79CE79CE79CE79CE79CE79CE79CE43
:1035500079CE79CE79CE79CE79CE79CE79CE79CE33
:1035600079CE79CE79CE79CE79CE79CE79CE79CE23
:1035700079CE79CE79CE79CE79CE79CE79CE79CE13
:1035800079CE79CE79CE79CE79CE79CE79CE79CE03
:1035900079CE79CE79CE79CE79CE79CE79CE79CEF3
:1035A00079CE79CE79CE79CE79CE79CE79CE79CEE3
:1035B00079CE79CE79CE79CE79CE79CE79CE79CED3
:1035C00079CE79CE79CE79CE79CE79CE79CE79CEC3
:1035D00079CE79CE79CE79CE79CE79CE79CE79CEB3
:1035E00079CE79CE79CE79CE79CE79CE79CE79CEA3
:1035F00079CE0028450179CE79CE79CE79CE79CEB3
:1036000079CE79CE79CE79CE79CE79CE79CE79CE82
:1036100079CE79CE79CE79CE79CE79CE79CE79CE72
:1036200079CE79CE79CE79CE79CE79CE79CE79CE62
:1036300079CE79CE79CE79CE79CE79CE79CE79CE52
:1059A00079CE79CE79CE40290000450179CE79CEE5
:1059B00079CE79CE79CE79CE79CE79CE79CE79CEAF
:1059C00079CE79CE79CEEF7B45294529EF7B79CE0B
:1059D00079CE79CE79CE79CE79CE79CE79CE79CE8F
:1059E00079CE79CE79CE79CEEF7BEF7BEF7B79CE16
:1059F00079CE79CE79CE79CE79CE79CE79CE79CE6F
:105A000079CE79CE79CE79CE79CE79CE79CE79CE5E
:105A100079CE79CE79CE79CE79CE79CE79CE79CE4E
:105A200079CE79CE79CE79CE79CE79CE79CE79CE3E
:105A300079CE79CE79CE79CE79CE79CE79CE79CE2E
:105A400079CE79CE79CE79CE79CE79CE79CE79CE1E
:105A500079CE79CE79CE79CE79CE79CE79CE79CE0E
:105A600079CE79CE79CE79CE79CE79CE79CE79CEFE
:105A700079CE79CE79CE79CE79CE79CE79CE79CEEE
:105A800079CE79CE79CE79CE79CE79CE79CE79CEDE
:105A900079CE79CE79CE79CE79CE79CE79CE79CECE
:105AA00079CE79CE79CE79CE79CE79CE79CE79CEBE
:105AB00079CE79CE79CE79CE79CE79CE79CE79CEAE
:105AC00079CE79CE79CE79CE79CE79CE79CEEF7B7B
:105AD000EF7B79CE79CE79CE79CE79CE79CE79CE6B
:105AE00079CE79CE79CE40290000450179CE79CEA4
:105AF00079CE79CE79CE79CE79CE79CE79CE79CE6E
:105B000079CE79CE79CE002800000000450179CE0B
:105B100079CE79CE79CE79CE79CE79CE79CE79CE4D
:105B200079CE79CE79CE79CE40290000050079CEA4
:105B300079CE79CE79CE79CE79CE79CE79CE79CE2D
:105B400079CE79CE79CE79CE79CE79CE79CE79CE1D
:105B500079CE79CE79CE79CE79CE79CE79CE79CE0D
:105B600079CE79CE79CE79CE79CE79CE79CE79CEFD
:105B700079CE79CE79CE79CE79CE79CE79CE79CEED
:105B800079CE79CE79CE79CE79CE79CE79CE79CEDD
:105B900079CE79CE79CE79CE79CE79CE79CE79CECD
:105BA00079CE79CE79CE79CE79CE79CE79CE79CEBD
:105BB00079CE79CE79CE79CE79CE79CE79CE79CEAD
:105BC00079CEEF7BEF7BEF7BEF7BEF7BEF7BEF7BA8
:105BD000EF7BEF7BEF7BEF7BEF7BEF7BEF7BEF7B75
:105BE000EF7BEF7BEF7BEF7BEF7BEF7BEF7BEF7B65
:105BF000EF7BEF7BEF7B79CE79CE79CEEF7BEF7BBE
:105C0000EF7B45294529000000000000000000004E
:105C10000000EF7B79CE79CE79CE79CE79CE79CE70
:105C200079CE79CE79CE40290000450179CE79CE62
:105C300079CE79CE79CE79CE79CE79CE79CE79CE2C
:105C400079CE79CE40290000000000000000450117
:105C500079CE79CE79CE79CE79CE79CE79CE79CE0C
:105C600079CE79CE79CE79CE40290000050079CE63
:105C700079CE79CE79CE79CE79CE79CE79CE79CEEC
:105C800079CE79CE79CE79CE79CE79CE79CE79CEDC
:105C900079CE79CE79CE79CE79CE79CE79CE79CECC
:105CA000EF7B45294529452979CE79CE79CE79CE24
:105CB00079CE79CE79CE45294529452945294529E9
:105CC0004529452945294529EF7B79CE79CE79CEDD
:105CD00079CE79CE79CE79CE79CE79CE79CE79CE8C
:105CE00079CE79CE79CE79CE79CE79CE79CE79CE7C
:105CF00079CE79CE79CE79CE79CE79CE79CE79CE6C
:105D000079CE4029000000000000000000000000E3
:105D10000000000000000000000000000000000083
:105D20000000000000000000000000000000000073
:105D300000000000450179CE79CE79CE0028000020
:105D40000000000000000000000000000000000053
:105D50000000450179CE79CEEF7BEF7B79CE79CE0D
:105D600079CE79CE79CE40290000450179CE79CE21
:105D700079CE79CE79CE79CE79CE79CE79CE79CEEB
:105D800079CEEF7B000000004501402900000000B3
:105D9000450179CE79CE79CE79CE79CE40290000F1
:105DA000452979CE79CE79CE40290000050079CEFB
:105DB00079CE79CE79CE79CE79CE79CE79CE79CEAB
:105DC00079CE79CE79CE79CE79CE79CE79CE79CE9B
:105DD00079CE79CE79CE79CE79CE79CE79CE79CE8B
:105DE000002800000000450179CE79CE79CE79CE29
:105DF00079CE79CE79CE00280000000000000000A6
:105E00000000000000000000000000000500EF7B23
:105E100079CE79CE79CE79CE79CE79CE79CE79CE4A
:105E200079CE79CE79CE79CE79CE79CE79CE79CE3A
:105E300079CE79CE79CE79CE79CE79CE79CE79CE2A
:105E400079CE4029000000000000000000000000A2
:105E50000000000000000000000000000000000042
:105E60000000000000000000000000000000000032
:105E700000000000450179CE79CE79CE00280000DF
:105E800000004529002800000500EF7B79CE79CE7F
:105E900079CE79CE79CEEF7B00000000EF7B79CE12
:105EA00079CE79CE79CE40290000450179CE79CEE0
:105EB00079CE79CE79CE79CE79CE79CE79CE79CEAA
:105EC00079CE00280000050079CE79CE4029000067
:105ED0000000450179CE79CE79CE79CE40290000F7
:105EE000450179CE79CE79CE40290000050079CEE2
:105EF00079CE79CE79CE79CE79CE79CE79CE79CE6A
:105F000079CE79CE79CE79CE79CE79CE79CE79CE59
:105F100079CE79CE79CE79CE79CE79CE79CE402927
:105F2000000000000000450179CE79CE79CE79CE0F
:105F300079CE79CE79CE0028000000000000000064
:105F40000000000000000000000000000000000051
:105F50000500EF7B79CE79CE79CE79CE79CE79CE28
:105F600079CE79CE79CE79CE79CE79CE79CE79CEF9
:105F700079CE79CE79CE79CE79CE79CE79CE79CEE9
:105F800079CE79CE79CE79CE79CE79CE79CE79CED9
:105F900079CE79CE79CE79CEEF7B00000000EF7B11
:105FA00079CE79CE79CE79CE79CE79CE79CE79CEB9
:105FB00079CE79CE79CE79CE79CE79CE79CE79CEA9
:105FC00079CE79CE40290000050079CE79CE79CE00
:105FD00079CE79CE79CE79CE4029000000004501F6
:105FE00079CE79CE79CE40290000450179CE79CE9F
:105FF00079CE79CE79CE79CE79CE79CE79CE79CE69
:10600000402900000000EF7B79CE79CE79CE40297F
:1060100000000000450179CE79CE79CE40290000FC
:10602000450179CE79CE79CE40290000050079CEA0
:1060300079CE79CE79CE79CE79CE79CE79CE79CE28
:1060400079CE79CE79CE79CE79CE79CE79CE79CE18
:1060500079CE79CE79CE79CE79CE79CEEF7B00002C
:10606000000000000000450179CE79CE79CE79CECE
:1060700079CE79CE79CE00280000050079CE79CE90
:1060800079CE79CE79CE79CEEF7B40290000000021
:1060900000000000EF7B79CE79CE79CE79CE79CE33
:1060A00079CE79CE79CE79CE79CE79CE79CE79CEB8
:1060B00079CE79CE79CE79CE79CE79CE79CE79CEA8
:1060C00079CE79CE79CE79CE79CE79CE79CE79CE98
:1060D00079CE79CE79CE79CEEF7B00000000EF7BD0
:1060E00079CE79CE79CE79CE79CE79CE79CE79CE78
:1060F00079CE79CE79CE79CE79CE79CE79CE79CE68
:1061000079CE79CE40290000050079CE79CE79CEBE
:1061100079CE79CE79CE79CE79CE402900000000B3
:10612000450179CE79CE40290000450179CE79CE5E
:1061300079CE79CE79CE79CE79CE79CE79CE402905
:1061400000000000EF7B79CE79CE79CE79CE79CE82
:10615000402900000000450179CE79CE4029000099
:10616000450179CE79CE79CE40290000050079CE5F
:1061700079CE79CE79CE79CE79CE79CE79CE79CEE7
:1061800079CE79CE79CE79CE79CE79CE79CE79CED7
:1061900079CE79CE79CE79CE79CE79CE40290000EC
:1061A000000000000000450179CE79CE79CE79CE8D
:1061B00079CE79CE79CE00280000050079CE79CE4F
:1061C00079CE79CE79CE79CE79CE79CEEF7B002893
:1061D000000000000000EF7B79CE79CE79CE79CE39
:1061E00079CE79CE79CE79CE79CE79CE79CE79CE77
:1061F00079CE79CE79CE79CE79CE79CE79CE79CE67
:1062000079CE79CE79CE79CE79CE79CE79CE79CE56
:1062100079CE79CE79CE79CEEF7B00000000EF7B8E
:1062200079CE79CE79CE79CE79CE79CE79CE79CE36
:1062300079CE79CE79CE79CE79CE79CE79CE79CE26
:1062400079CE79CE40290000050079CE79CE79CE7D
:1062500079CE79CE79CE79CE79CE79CE402900002B
:106260000000050079CE40290000450179CE79CEA5
:1062700079CE79CE79CE79CE79CE79CE402900000B
:106280000000450179CE79CE79CE79CE79CE79CE1E
:1062900079CE402900000000450179CE4029000058
:1062A000450179CE79CE79CE40290000050079CE1E
:1062B00079CE79CE79CE79CE79CE79CE79CE79CEA6
:1062C00079CE79CE79CE79CE79CE79CE79CE79CE96
:1062D00079CE79CE79CE79CE79CEEF7B00000000F1
:1062E000452900000000450179CE79CE79CE79CEDE
:1062F00079CE79CE79CE00280000050079CE79CE0E
:1063000079CE79CE79CE79CE79CE79CE79CE79CE55
:10631000402900000000050079CE79CE79CE79CEF3
:1063200079CE79CE79CE79CE79CE79CE79CE79CE35
:1063300079CE79CE79CE79CE79CE79CE79CE79CE25
:1063400079CE79CE79CE79CE79CE79CE79CE79CE15
:1063500079CE79CE79CE79CEEF7B00000000EF7B4D
:1063600079CE79CE79CE79CE79CE79CE79CE79CEF5
:1063700079CE79CE79CE79CE79CE79CEEF7BEF7B9F
:10638000EF7BEF7B402900000500EF7BEF7BEF7B8D
:10639000EF7B79CE79CE79CE79CE79CE79CEEF7B7F
:1063A0000000EF7B79CE40290000450179CE79CEFF
:1063B00079CE79CE79CE79CE79CE40290000000011
:1063C000050079CE79CE79CE79CE79CE79CE79CED7
:1063D00079CE79CE40290000450179CE40290000D0
:1063E000450179CE79CE79CE40290000050079CEDD
:1063F00079CE79CE79CE79CE79CE79CE79CE79CE65
:1064000079CE79CE79CE79CE79CE79CE79CE79CE54
:1064100079CE79CE79CE79CE79CE002800004501AB
:10642000EF7B00000000450179CE79CE79CE79CEA0
:1064300079CE79CE79CE00280000050079CE79CECC
:1064400079CE79CE79CE79CE79CE79CE79CE79CE14
:1064500079CE002800000000EF7B79CE79CE79CE8E
:1064600079CE79CE79CE79CE79CE79CE79CE79CEF4
:1064700079CE79CE79CE79CE79CE79CE79CE79CEE4
:1064800079CE79CE79CE79CE79CE79CE79CE79CED4
:1064900079CE79CE79CE79CEEF7B00000000EF7B0C
:1064A00079CE79CE79CE79CE79CE79CE79CE79CEB4
:1064B00079CE79CE79CE79CE79CEEF7B000000000F
:1064C00000000000000000000000000000000000CC
:1064D0000000450179CE79CE79CE79CE79CE79CECC
:1064E000EF7B79CE79CE40290000450179CE79CE77
:1064F00079CE79CE79CE79CE402900000000050012
:1065000079CE79CE79CE79CE79CE79CE79CE79CE53
:1065100079CE79CE79CE452979CE79CE4029000041
:10652000450179CE79CE79CE40290000050079CE9B
:1065300079CE79CE79CE79CE79CE79CE79CE79CE23
:1065400079CE79CE79CE79CE79CE79CE79CE79CE13
:1065500079CE79CE79CE79CE40290000050079CE6A
:10656000EF7B00000000450179CE79CE79CE79CE5F
:1065700079CE79CE79CE00280000050079CE79CE8B
:1065800079CE79CE79CE79CE79CE79CE79CE79CED3
:1065900079CEEF7B00000000050079CE79CE79CE70
:1065A00079CE79CE79CE79CE79CE79CE79CE79CEB3
:1065B00079CE79CE79CE79CE79CE79CE79CE79CEA3
:1065C00079CE79CE79CE79CE79CE79CE79CE79CE93
:1065D00079CE79CE79CE79CEEF7B00000000EF7BCB
:1065E00079CE79CE79CE79CE79CE79CE79CE79CE73
:1065F00079CE79CE79CE79CE79CEEF7B00000000CE
:10660000000000000000000000000000000000008A
:1066100000004501EF7BEF7B79CE79CE79CE79CE44
:1066200079CE79CE79CE40290000450179CE79CE58
:1066300079CE79CE79CEEF7B0000000000004501D5
:1066400045294529452945294529452945294529DA
:1066500045294529452979CE79CE79CE40290000B2
:10666000450179CE79CE79CE40290000050079CE5A
:1066700079CE79CE79CE79CE79CE79CE79CE79CEE2
:1066800079CE79CE79CE79CE79CE79CE79CE79CED2
:1066900079CE79CE79CEEF7B00000000450179CE2E
:1066A000EF7B00000000450179CE79CE79CE79CE1E
:1066B00079CE79CE79CE00280000050079CE79CE4A
:1066C00079CE79CE79CE79CE79CE79CE79CE79CE92
:1066D00079CE79CE002800000000EF7B79CE79CE0C
:1066E00079CE79CE79CE79CE79CE79CE79CE79CE72
:1066F00079CE79CE79CE79CE79CE79CE79CE79CE62
:1067000079CE79CE79CE79CE79CE79CE79CE79CE51
:1067100079CE79CE79CE79CEEF7B00000000EF7B89
:1067200079CE79CE79CE79CE79CE79CE79CE79CE31
:1067300079CE79CE79CE79CE79CE79CE79CE79CE21
:1067400079CE79CE00280000050079CE79CE79CEB9
:1067500079CE79CE00280000450179CE79CE79CE68
:1067600079CE79CE79CE40290000450179CE79CE17
:1067700079CE79CE79CE79CE00280500EF7B000066
:106780000000000000000000000000000000000009
:1067900000000000050079CE79CE79CE40290000B6
:1067A000450179CE79CE79CE40290000050079CE19
:1067B00079CE79CE79CE79CE79CE79CE79CE79CEA1
:1067C00079CE79CE79CE79CE79CE79CE79CE79CE91
:1067D00079CE79CE79CE00280000050079CE79CE29
:1067E000EF7B00000000450179CE79CE79CE79CEDD
:1067F00079CE79CE79CE00280000050079CE79CE09
:1068000079CE79CE79CE79CE79CE79CE79CE79CE50
:1068100079CE79CE002800000000EF7B79CE79CECA
:1068200079CE79CE79CE79CE79CE79CE79CE79CE30
:1068300079CE79CE79CE79CE79CE79CE79CE79CE20
:1068400079CE79CE79CE79CE79CE79CE79CE79CE10
:1068500079CE79CE79CE79CEEF7B00000000EF7B48
:1068600079CE79CE79CE79CE79CE79CE79CE79CEF0
:1068700079CE79CE79CE79CE79CE79CE79CE79CEE0
:1068800079CEEF7B00000000050079CE79CE79CE7D
:1068900079CE79CE402900000000050079CE79CE6E
:1068A00079CE79CE79CE40290000450179CE79CED6
:1068B00079CE79CE79CE79CE79CE79CEEF7B0000C4
:1068C00000004529452945294529452945294529C6
:1068D00000280000050079CE79CE79CE402900004D
:1068E000450179CE79CE79CE40290000050079CED8
:1068F00079CE79CE79CE79CE79CE79CE79CE79CE60
:1069000079CE79CE79CE79CE79CE79CE79CE79CE4F
:1069100079CE79CE00280000050079CE79CE79CEE7
:10692000EF7B00000000450179CE79CE79CE79CE9B
:1069300079CE79CE79CE00280000050079CE79CEC7
:1069400079CE79CE79CE79CE79CE79CE79CE79CE0F
:1069500079CE79CE402900000000EF7B79CE79CE48
:1069600079CE79CE79CE79CE79CE79CE79CE79CEEF
:1069700079CE79CE79CE79CE79CE79CE79CE79CEDF
:1069800079CE79CE79CE79CE79CE79CE79CE79CECF
:1069900079CE79CE79CE79CEEF7B00000000EF7B07
:1069A00079CE79CE79CE79CE79CE79CE79CE79CEAF
:1069B00079CE79CE79CE79CE79CE79CE79CE79CE9F
:1069C00079CE40290000000005004529452979CEEF
:1069D00079CE79CE79CEEF7B000000000500EF7B09
:1069E00079CE79CE79CE40290000450179CE79CE95
:1069F00079CE79CE79CE79CE79CE79CEEF7B000083
:106A0000050079CE79CE79CE79CE79CE79CE79CE90
:106A1000EF7B0000050079CE79CE79CE40290000C9
:106A2000450179CE79CE79CE40290000050079CE96
:106A300079CE79CE79CE79CE79CE79CE79CE79CE1E
:106A400079CE79CE79CE79CE79CE79CE79CE79CE0E
:106A500079CE402900000000EF7B79CE79CE79CE47
:106A6000EF7B00000000450179CE79CE79CE79CE5A
:106A700079CE79CE79CE00280000050079CE79CE86
:106A800079CE79CE79CE79CE79CE79CE79CE79CECE
:106A900079CE79CE402900000000EF7B79CE79CE07
:106AA00079CE79CE79CE79CE79CE79CE79CE79CEAE
:106AB00079CE79CE79CE79CE79CE79CE79CE79CE9E
:106AC00079CE79CE79CE79CE79CE79CE79CE79CE8E
:106AD00079CE79CE79CE79CEEF7B00000000EF7BC6
:106AE00079CE79CE79CE79CE79CE79CE79CE79CE6E
:106AF00079CE79CE79CE79CE79CE79CE79CE79CE5E
:106B000079CE0028000000000000000000004501D0
:106B100079CE79CE79CE79CEEF7B000000000500EA
:106B200079CE79CE79CE40290000450179CE79CE53
:106B300079CE79CE79CE79CE79CE79CEEF7B000041
:106B4000050079CE79CE79CE79CE79CE79CE79CE4F
:106B500040290000050079CE79CE79CE4029000089
:106B6000450179CE79CE79CE40290000050079CE55
:106B700079CE79CE79CE79CE79CE79CE79CE79CEDD
:106B800079CE79CE79CE79CE79CE79CE79CE79CECD
:106B9000EF7B00000000450179CE79CE79CE79CE29
:106BA000EF7B00000000450179CE79CE79CE79CE19
:106BB00079CE79CE79CE00280000050079CE79CE45
:106BC00079CE79CE79CE79CE79CE79CE79CE79CE8D
:106BD00079CE79CE402900000000EF7B79CE79CEC6
:106BE00079CE79CE79CE79CE79CE79CE79CE79CE6D
:106BF00079CE79CE79CE79CE79CE79CE79CE79CE5D
:106C000079CE79CE79CE79CE79CE79CE79CE79CE4C
:106C100079CE79CE79CE79CEEF7B00000000EF7B84
:106C200079CE79CE79CE79CE79CE79CE79CE79CE2C
:106C300079CE79CE79CE79CE79CE79CE79CE79CE1C
:106C4000EF7B0000000000000500EF7B000000006B
:106C5000050079CE79CE79CE79CEEF7B0000EF7B3F
:106C600079CE79CE79CE40290000450179CE79CE12
:106C700079CE79CE79CE79CE79CE79CEEF7B000000
:106C8000050079CE79CE79CE79CE79CE79CE79CE0E
:106C900040290000450179CE79CE79CE4029000007
:106CA000450179CE79CE79CE40290000050079CE14
:106CB00079CE79CE79CE4029000000000000000096
:106CC000000000000000050079CE79CE79CEEF7B80
:106CD00000000000050079CE79CE79CE79CE79CE4C
:106CE000EF7B00000000450179CE79CE79CE79CED8
:106CF00079CE79CE79CE00280000050079CE79CE04
:106D000079CE79CE79CE79CE79CE79CE79CE79CE4B
:106D100079CE79CE002800000000EF7B79CE79CEC5
:106D200079CE79CE79CE79CE79CE79CE79CE79CE2B
:106D300079CE79CE79CE79CE79CE79CE79CE79CE1B
:106D400079CE79CE79CE79CE79CE79CE79CE79CE0B
:106D500079CE79CE79CE79CEEF7B00000000EF7B43
:106D600079CE79CE79CE79CE79CE79CE79CE79CEEB
:106D700079CE79CE79CE79CE79CE79CE79CE79CEDB
:106D80000028000000000000050079CEEF7B000025
:106D90000000450179CE79CE79CE79CE79CE79CE03
:106DA00079CE79CE79CE40290000450179CE79CED1
:106DB00079CE79CE79CE79CE79CE79CEEF7B0000BF
:106DC000050079CE79CE79CE79CE79CE79CE79CECD
:106DD00040290000450179CE79CE79CE40290000C6
:106DE000450179CE79CE79CE40290000050079CED3
:106DF00079CE79CE79CE4029000000000000000055
:106E0000000000000000050079CE79CE79CE002880
:106E100000000000EF7B79CE79CE79CE79CE79CEA5
:106E2000EF7B00000000450179CE79CE79CE79CE96
:106E300079CE79CE79CE00280000050079CE79CEC2
:106E400079CE79CE79CE79CE79CE79CE79CE79CE0A
:106E500079CE79CE00280000050079CE79CE79CEA2
:106E600079CE79CE79CE79CE79CE79CE79CE79CEEA
:106E700079CE79CE79CE79CE79CE79CE79CE79CEDA
:106E800079CE79CE79CE79CE79CE79CE79CE79CECA
:106E900079CE79CE79CE79CEEF7B00000000EF7B02
:106EA00079CE79CE79CE79CE79CE79CE79CE79CEAA
:106EB00079CE79CE79CE79CE79CE79CE79CE402978
:106EC0000000050040290000050079CE79CEEF7B57
:106ED0000500EF7B79CE79CE79CE79CE79CE79CE99
:106EE00079CE79CE79CE40290000450179CE79CE90
:106EF00079CEEF7B79CE79CE79CE79CEEF7B00005B
:106F0000050079CE79CE79CE79CE79CE79CE79CE8B
:106F100000280000450179CE79CE79CE40290000C5
:106F2000450179CE79CE79CE40290000050079CE91
:106F300079CE79CE79CE79CEEF7BEF7BEF7BEF7B8D
:106F4000EF7BEF7BEF7B79CE79CE79CE0028000006
:106F50000000000000000000000000000000000031
:106F6000000000000000000000000000050079CED5
:106F700079CE79CE79CE00280000050079CE79CE81
:106F800079CE79CE79CE79CE79CE79CE79CE79CEC9
:106F900079CEEF7B00000000050079CE79CE79CE66
:106FA00079CE79CE79CE79CE79CE79CE79CE79CEA9
:106FB00079CE79CE79CE79CE79CE79CE79CE79CE99
:106FC00079CE79CE79CE79CE79CE79CE79CE79CE89
:106FD00079CE79CE79CE79CEEF7B00000000EF7BC1
:106FE00079CE79CE79CE79CE79CE79CE79CE79CE69
:106FF00079CE79CE79CE79CE79CE79CE79CE002878
:107000000000EF7B40290000050079CE79CE79CED3
:1070100079CE79CE79CE79CE79CE79CEEF7BEF7BF2
:10702000EF7B45294529000000000000000000001A
:1070300000000000EF7B79CE79CE79CEEF7B0000A7
:10704000050079CEEF7B050045294529452900003B
:1070500000000000EF7B79CE79CE79CE4029000088
:10706000450179CE79CE79CE40290000050079CE50
:1070700079CE79CE79CE79CE79CE79CE79CE79CED8
:1070800079CE79CE79CE79CE79CE79CE002800002E
:1070900000000000000000000000000000000000F0
:1070A000000000000000000000000000050079CE94
:1070B00079CE79CE79CE00280000050079CE79CE40
:1070C00079CE79CE79CE79CE79CE79CE79CE79CE88
:1070D00079CE002800000000EF7B79CE79CE79CE02
:1070E00079CE79CE79CE79CE79CE79CE79CE79CE68
:1070F00079CE79CE79CE79CE79CE79CE79CE79CE58
:1071000079CE79CE79CE79CE79CE79CE79CE79CE47
:1071100079CE79CE79CE79CEEF7B00000000EF7B7F
:1071200079CE79CE79CE79CE79CE79CE79CE79CE27
:1071300079CE79CE79CE79CE79CE79CE402900003C
:10714000050079CE40290000050079CE79CE79CEB0
:107150000028000000000000000000000000000007
:10716000000000000000000000000000000000001F
:1071700000000000452979CE79CE79CEEF7B000062
:10718000050079CEEF7B0000000000000000000049
:107190000000450179CE79CE79CE79CE4029000024
:1071A000450179CE79CE79CE40290000050079CE0F
:1071B00079CE79CE79CE79CE79CE79CE79CE79CE97
:1071C00079CE79CE79CE79CE79CE79CE4529452939
:1071D000452945294529452945294529452945293F
:1071E000402900000000000045294529452979CEA5
:1071F00079CE79CE79CE00280000050079CE79CEFF
:1072000079CE79CE79CE79CE79CE79CE79CE79CE46
:10721000402900000000050079CE79CE79CE79CEE4
:1072200079CE79CE79CE79CE79CE79CE79CE79CE26
:1072300079CE79CE79CE79CE79CE79CE79CE79CE16
:1072400079CE79CE79CE79CE79CE79CE79CE79CE06
:1072500079CE79CE79CE79CEEF7B00000000EF7B3E
:1072600079CE79CE79CE79CE79CE79CE79CE79CEE6
:1072700079CE79CE79CE79CE79CEEF7B0000000041
:10728000EF7B79CE40290000050079CE79CE79CE0A
:1072900000280000000000000000000000000000C6
:1072A000050045294529002800004501EF7B79CEDE
:1072B00079CE79CE79CE79CE79CE79CEEF7B0000BA
:1072C000050079CE79CE4529452945294529452905
:1072D000EF7B79CE79CE79CE79CE79CE4029000078
:1072E000450179CE79CE79CE40290000050079CECE
:1072F00079CE79CE79CE79CE79CE79CE79CE79CE56
:1073000079CE79CE79CE79CE79CE79CE79CE79CE45
:1073100079CE79CE79CE79CE79CE79CE79CE79CE35
:10732000EF7B00000000450179CE79CE79CE79CE91
:1073300079CE79CE79CE00280000050079CE79CEBD
:1073400079CE79CE79CE79CE79CE79CE79CE4029E3
:10735000000000000000EF7B79CE79CE79CE79CEA7
:1073600079CE79CE79CE79CE79CE79CE79CE79CEE5
:1073700079CE79CE79CE79CE79CE79CE79CE79CED5
:1073800079CE79CE79CE79CE79CE79CE79CE79CEC5
:1073900079CE79CE79CE79CEEF7B00000000EF7BFD
:1073A00079CE79CE79CE79CE79CE79CE79CE79CEA5
:1073B00079CE79CE79CE79CE79CEEF7B00000500FB
:1073C00079CE79CE40290000050079CE79CE79CEEC
:1073D000EF7BEF7BEF7BEF7B79CE79CE79CE79CEE9
:1073E00079CE79CE79CE40290000450179CE79CE8B
:1073F00079CE79CE79CE79CE79CE79CEEF7B000079
:10740000050079CE79CE79CE79CE79CE79CE79CE86
:1074100079CE79CE40290500EF7B79CE79CEEF7B0E
:1074200079CE79CE79CE79CE40290000050079CE8B
:1074300079CE79CE79CE79CE79CE79CE79CE79CE14
:1074400079CE79CE79CE79CE79CE79CE79CE79CE04
:1074500079CE79CE79CE79CE79CE79CE79CE79CEF4
:10746000EF7B00000000450179CE79CE79CE79CE50
:1074700079CE79CE79CE00280000050079CE79CE7C
:1074800079CE79CE79CE79CE79CEEF7B0028000007
:1074900000000000EF7B79CE79CE79CE79CE79CE1F
:1074A00079CE79CE79CE79CE79CE79CE79CE79CEA4
:1074B00079CE79CE79CE79CE79CE79CE79CE79CE94
:1074C00079CE79CE79CE79CE79CE79CE79CE79CE84
:1074D00079CE79CE79CE79CEEF7B00000000EF7BBC
:1074E00079CE79CE79CE79CE79CE79CE79CE79CE64
:1074F00079CE79CE79CE79CE79CE79CE0028EF7B50
:1075000079CE79CE40290000050079CE79CE79CEAA
:1075100079CE79CE79CE79CE79CE79CE79CE79CE33
:1075200079CE79CE79CE40290000450179CE79CE49
:1075300079CE79CE79CE79CE79CE79CEEF7B000037
:10754000050079CE79CE79CE79CE79CE79CE79CE45
:1075500079CE79CE40290000050079CE79CE79CE5A
:1075600079CE79CE79CE79CE40290000050079CE4A
:1075700079CE79CE79CE79CE79CE79CE79CE79CED3
:1075800079CE79CE79CE79CE79CE79CE79CE79CEC3
:1075900079CE79CE79CE79CE79CE79CE79CE79CEB3
:1075A000EF7B00000000450179CE79CE79CE79CE0F
:1075B00079CE79CE79CE00280000000045294529F2
:1075C0004529452945290000000000000000000071
:1075D0000000EF7B79CE79CE79CE79CE79CE79CE97
:1075E00079CE79CE79CE79CE79CE79CE79CE79CE63
:1075F00079CE79CE79CE79CE79CE79CE79CE79CE53
:1076000079CE79CE79CE79CE79CE79CE79CE79CE42
:1076100079CE79CE79CE79CEEF7B00000000EF7B7A
:1076200079CE79CE79CE79CE79CE79CE79CE79CE22
:1076300079CE79CE79CE79CE79CE79CE79CE79CE12
:1076400079CE79CE40290000050079CE79CE79CE69
:1076500079CE79CE79CE79CE79CE79CE79CE79CEF2
:1076600079CE79CE79CE40290000450179CE79CE08
:1076700079CE79CE79CE79CE79CE79CEEF7B0000F6
:10768000050079CE79CE79CE79CE79CE79CE79CE04
:1076900079CE79CE40290000450179CE79CE79CED8
:1076A00079CE79CE79CE79CE40290000050079CE09
:1076B00079CE79CE79CE79CE79CE79CE79CE79CE92
:1076C00079CE79CE79CE79CE79CE79CE79CE79CE82
:1076D00079CE79CE79CE79CE79CE79CE79CE79CE72
:1076E000EF7B00000000450179CE79CE79CE79CECE
:1076F00079CE79CE79CE002800000000000000008D
:107700000000000000000000000000000000450133
:1077100079CE79CE79CE79CE79CE79CE79CE79CE31
:1077200079CE79CE79CE79CE79CE79CE79CE79CE21
:1077300079CE79CE79CE79CE79CE79CE79CE79CE11
:10774000EF7BEF7BEF7BEF7BEF7BEF7BEF7BEF7BE9
:10775000EF7BEF7BEF7BEF7B4029000000004501D2
:10776000EF7BEF7BEF7BEF7BEF7BEF7BEF7BEF7BC9
:10777000EF7BEF7BEF7BEF7B79CE79CE79CE79CE45
:1077800079CE79CE40290000050079CE79CE79CE28
:1077900079CE79CE79CE79CE79CE79CE79CE79CEB1
:1077A00079CE79CE79CE40290000450179CE79CEC7
:1077B00079CE79CE79CE79CE79CE79CEEF7B0000B5
:1077C000050079CE79CE79CE79CE79CE79CE79CEC3
:1077D00079CE79CE00280000EF7B79CE79CE79CEB4
:1077E00079CE79CE79CE79CE40290000050079CEC8
:1077F00079CE79CE79CE79CE79CE79CE79CE79CE51
:1078000079CE79CE79CE79CE79CE79CE79CE79CE40
:1078100079CE79CE79CE79CE79CE79CE79CE79CE30
:10782000EF7B00000000450179CE79CE79CE79CE8C
:1078300079CE79CE79CE002800000000000000004B
:1078400000000000000000004501EF7B79CE79CEFA
:1078500079CE79CE79CE79CE79CE79CE79CE79CEF0
:1078600079CE79CE79CE79CE79CE79CE79CE79CEE0
:1078700079CE79CE79CE79CE79CE79CE79CEEF7BAD
:1078800000000000000000000000000000000000F8
:1078900000000000000000000000000000000000E8
:1078A00000000000000000000000000000000000D8
:1078B0000000000000000000EF7B79CE79CE79CE89
:1078C00079CE79CE40290000050079CE79CE79CEE7
:1078D00079CE79CE79CE79CE79CE79CE79CE79CE70
:1078E00079CE79CE79CE40290000450179CE79CE86
:1078F00079CE79CE79CE79CE79CE79CEEF7B000074
:107900000000EF7B79CE79CE79CE79CE79CE79CE63
:1079100079CE402900000000EF7B79CE79CE79CE78
:1079200079CE79CE79CE79CE00280000450179CE86
:1079300079CE79CE79CE79CE79CE79CE79CE79CE0F
:1079400079CE79CE79CE79CE79CE79CE79CE79CEFF
:1079500079CE79CE79CE79CE79CE79CE79CE79CEEF
:1079600079CE79CE79CE79CE79CE79CE79CE79CEDF
:1079700079CE79CE79CE79CE79CE79CE79CE79CECF
:1079800079CE79CE79CE79CE79CE79CE79CE79CEBF
:1079900079CE79CE79CE79CE79CE79CE79CE79CEAF
:1079A00079CE79CE79CE79CE79CE79CE79CE79CE9F
:1079B00079CE79CE79CE79CE79CE79CE79CEEF7B6C
:1079C000002800000000000000000000000000008F
:1079D00000000000000000000000000000000000A7
:1079E0000000000000000000000000000000000097
:1079F0000000000000000500EF7B79CE79CE79CE43
:107A000079CE79CE40290000050079CE79CE79CEA5
:107A100079CE79CE79CE79CE79CE79CE79CE79CE2E
:107A200079CE79CE79CE40290000450179CE79CE44
:107A300079CE79CE79CE79CE79CE79CE79CE00282D
:107A40000000000000000000000000000000000036
:107A5000000000000000450179CE79CE40290000E9
:107A6000000000000000000000000000450179CE89
:107A700079CE79CE79CE79CE79CE79CE79CE79CECE
:107A800079CE79CE79CE79CE79CE79CE79CE79CEBE
:107A900079CE79CE79CE79CE79CE79CE79CE79CEAE
:107AA00079CE79CE79CE79CE79CE79CE79CE79CE9E
:107AB00079CE79CE79CE79CE79CE79CE79CE79CE8E
:107AC00079CE79CE79CE79CE79CE79CE79CE79CE7E
:107AD00079CE79CE79CE79CE79CE79CE79CE79CE6E
:107AE00079CE79CE79CE79CE79CE79CE79CE79CE5E
:107AF00079CE79CE79CE79CE79CE79CE79CE79CE4E
:107B000079CE79CE79CE79CE79CE79CE79CE79CE3D
:107B100079CE79CE79CE79CE79CE79CE79CE79CE2D
:107B200079CE79CE79CE79CE79CE79CE79CE79CE1D
:107B300079CE79CE79CE79CE79CE79CE79CE79CE0D
:107B400079CE79CE40290000050079CE79CE79CE64
:107B500079CE79CE79CE79CE79CE79CE79CE79CEED
:107B600079CE79CE79CE40290000450179CE79CE03
:107B700079CE79CE79CE79CE79CE79CE79CEEF7BAA
:107B800000280000000000000000000000000000CD
:107B900000000000452979CE79CE79CE4029000039
:107BA00000000000000000000000050079CE79CE42
:107BB00079CE79CE79CE79CE79CE79CE79CE79CE8D
:107BC00079CE79CE79CE79CE79CE79CE79CE79CE7D
:107BD00079CE79CE79CE79CE79CE79CE79CE79CE6D
:107BE00079CE79CE79CE79CE79CE79CE79CE79CE5D
:107BF00079CE79CE79CE79CE79CE79CE79CE79CE4D
:107C000079CE79CE79CE79CE79CE79CE79CE79CE3C
:107C100079CE79CE79CE79CE79CE79CE79CE79CE2C
:107C200079CE79CE79CE79CE79CE79CE79CE79CE1C
:107C300079CE79CE79CE79CE79CE79CE79CE79CE0C
:107C400079CE79CE79CE79CE79CE79CE79CE79CEFC
:107C500079CE79CE79CE79CE79CE79CE79CE79CEEC
:107C600079CE79CE79CE79CE79CE79CE79CE79CEDC
:107C700079CE79CE79CE79CE79CE79CE79CE79CECC
:107C800079CE79CE40290000050079CE79CE79CE23
:107C900079CE79CE79CE79CE79CE79CE79CE79CEAC
:107CA00079CE79CE79CE40290000450179CE79CEC2
:107CB00079CE79CE79CE79CE79CE79CE79CE79CE8C
:107CC00079CE79CE79CE79CE79CE79CE79CE79CE7C
:107CD00079CE79CE79CE79CE79CE79CEEF7B452922
:107CE0004529452945294529EF7B79CE79CE79CE9D
:107CF00079CE79CE79CE79CE79CE79CE79CE79CE4C
:107D000079CE79CE79CE79CE79CE79CE79CE79CE3B
:107D100079CE79CE79CE79CE79CE79CE79CE79CE2B
:107D200079CE79CE79CE79CE79CE79CE79CE79CE1B
:10A1A00079CE79CE79CE79CE79CE79CE2DE9F84FA8
:10A1B000002400208DF802005FF0000A01F044F94D
:10A1C00001F0BAF9002001F091FADFF8005C2A00F2
:10A1D0000021202001F04CFB15F114020121202068
:10A1E00001F046FB15F128020221202001F040FB7E
:10A1F00015F13C020321202001F03AFB15F1500239
:10A200000421202001F034FB15F1640205212020F7
:10A2100001F02EFB15F178020621202001F028FB29
:10A2200015F18C020721202001F022FB4FF6FF756B
:10A2300029002000C0B200F025F9DFF8986C022058
:10A240003070DFF8947C4FF48041380001F07EFEDE
:10A2500080464FF40051380001F078FE81468DF8B9
:10A2600000808DF801904FF48041380001F06EFEBF
:10A2700080464FF40051380001F068FE81469DF899
:10A2800000004146C9B2884203D04046C0B200280F
:10A2900035D102203070DFF844BC4FF4807158464D
:10A2A00001F054FE002812D1022001F01DFF4FF4EE
:10A2B0008071584601F04AFE002801D1002030701C
:10A2C0004FF48071584601F041FE0028F8D040213B
:10A2D000584601F03BFE00281DD1022001F004FF8A
:10A2E0004021584601F032FE002801D10120307093
:10A2F0004021584601F02AFE00280CD1F8E74846D4
:10A30000C0B2002801D1012030704846C0B20128F7
:10A3100001D1002030703078002840D12000C0B238
:10A32000002806D000212000C0B200F0ABF8641E67
:10A3300019E04FF40071DFF8A80B01F007FE0028C8
:10A3400011D1DFF8A0BB4FF48051584601F0F6FD63
:10A35000012001F0C9FE4FF48051584601F0F2FD92
:10A36000052001F0C1FE4FF40071DFF8740B01F01D
:10A37000EDFD00280ED1DFF86CBB4FF4805158463C
:10A3800001F0DCFD012001F0AFFE4FF48051584692
:10A3900001F0D8FD29002000C0B200F073F8307839
:10A3A000012840D12000C0B2072806DA0021200091
:10A3B000C0B200F067F8641C19E04FF40071DFF8D8
:10A3C000200B01F0C3FD002811D1DFF818BB4FF4BA
:10A3D0008051584601F0B2FD012001F085FE4FF496
:10A3E0008051584601F0AEFD052001F07DFE4FF48E
:10A3F0000071DFF8EC0A01F0A9FD00280ED1DFF8AA
:10A40000E4BA4FF48051584601F098FD012001F064
:10A410006BFE4FF48051584601F094FD2900200056
:10A42000C0B200F02FF88DF800808DF80190022066
:10A430003070DFF8A8BA0421584601F087FD0028E3
:10A4400006D08021584601F081FD00287FF40BAF33
:10A45000322001F049FE0421584601F077FD002822
:10A4600006D08021584601F071FD00287FF4FBAE34
:10A470000421584601F06AFD0028F9D02000C0B23E
:10A48000BDE8F28F2DE9F04704000D005FF00009F0
:10A490004846C0B210284EDA2000C0B280B2000197
:10A4A00050FA89F39B1C9BB21C222000C0B280B2E0
:10A4B000000150FA89F1891C89B20C2001F0F7F8EB
:10A4C000DFF8240D4946C9B210F811100F004946B3
:10A4D000C9B200EB4100407880465FF0000A504668
:10A4E000C0B208280EDAF80704D5280080B201F0BF
:10A4F000CCF802E0002001F0C8F8FFB27F081AF1A2
:10A50000010AECE700263000C0B2082810DA5FEA42
:10A51000C87004D5280080B201F0B7F802E000202E
:10A5200001F0B3F85FFA88F85FEA5808761CEAE7AA
:10A5300019F10109ACE7BDE8F0872DE9F04F8DB0C6
:10A540005FF0000B00200C9000200B9041F21C00EB
:10A5500001F0E6FD01F0D2FF01F0B2FF06A802F023
:10A5600089F89DF8180000F0A5FB8DF80C009DF807
:10A57000190000F09FFB8DF80B009DF81A0000F009
:10A5800099FB8DF80A009DF81C0000F093FB8DF8F4
:10A5900009009DF81D0000F08DFB8DF808009DF866
:10A5A0001E0000F087FB0400DFF8405C9DF80C0003
:10A5B00028709DF80B0068709DF80A00A8709DF83F
:10A5C0000900E8709DF8080028716C71DFF80C69CB
:10A5D0000821300001F0B2FCDFF808794FF48071F7
:10A5E000380001F0AFFC00F02FFF00F0A5FF0020C5
:10A5F00001F07CF800F09FFA5FF00008404680B25E
:10A60000062806DA4046C0B200F01FFC18F1010827
:10A61000F4E74FF48041DFF8C00801F097FC8DF8B3
:10A620000E009DF80E008DF810004FF40051DFF879
:10A63000A80801F08BFC8DF80D009DF80D008DF839
:10A640001600DFF89C984FF48061484601F07EFCCC
:10A65000002809D1002001900A2000900B231A2223
:10A660000221182002F07EF806A802F003F89DF8F7
:10A67000180000F01FFB8DF80C009DF8190000F089
:10A6800019FB8DF80B009DF81A0000F013FB8DF8F4
:10A690000A009DF81C0000F00DFB8DF809009DF8E4
:10A6A0001D0000F007FB8DF808009DF81E0000F06B
:10A6B00001FB04009DF80F102000C0B2814200F0A1
:10A6C000B48002220221012001F012F900220221AD
:10A6D000112001F00DF99DF80C100A2091FBF0F00B
:10A6E0000200D2B20221212001F002F99DF80C00F3
:10A6F0000A2290FBF2F102FB11000200D2B2022109
:10A70000312001F0F5F89DF80B100A2091FBF0F0D4
:10A710000200D2B20221512001F0EAF89DF80B208C
:10A720000A2092FBF0F100FB1122D2B2022161203B
:10A7300001F0DEF89DF80A100A2091FBF0F002000B
:10A74000D2B20221812001F0D3F89DF80A200A201C
:10A7500092FBF0F100FB1122D2B20221912001F014
:10A76000C7F89DF809100A2091FBF0F00200D2B260
:10A770001621212001F0BCF89DF809200A2092FB47
:10A78000F0F100FB1122D2B21621312001F0B0F815
:10A790009DF808100A2091FBF0F00200D2B21621B9
:10A7A000512001F0A5F89DF808200A2092FBF0F155
:10A7B00000FB1122D2B21621612001F099F821008C
:10A7C000C9B20A2091FBF0F00200D2B2162181201A
:10A7D00001F08EF82200D2B20A2092FBF0F100FBC9
:10A7E0001122D2B21621912001F082F89DF80C00BE
:10A7F0008DF815009DF80B008DF814009DF80A00E7
:10A800008DF813009DF809008DF812009DF80800DE
:10A810008DF811008DF80F400821300001F0E1FBA8
:10A820004FF48071380001F0DCFBDFF8A8A60220AD
:10A830008AF800004FF48071300001F087FB002897
:10A8400013D1022001F050FC4FF48071300001F070
:10A850007DFB002802D100208AF800004FF48071AF
:10A86000300001F073FB0028F8D04021300001F0E7
:10A870006DFB002811D1022001F036FC4021300090
:10A8800001F064FB002802D101208AF80000402179
:10A89000300001F05BFB0028F9D09AF80000002896
:10A8A00041D15846C0B2002808D0002200215846A5
:10A8B000C0B200F08DFABBF1010B16E04FF400714D
:10A8C000484601F043FB00280FD14FF48051380077
:10A8D00001F034FB0A2001F007FC4FF480513800EE
:10A8E00001F030FB052001F0FFFB4FF400714846FA
:10A8F00001F02CFB00280CD14FF48051380001F0FE
:10A900001DFB012001F0F0FB4FF48051380001F0F5
:10A9100019FB00224DF243315846C0B200F058FAFC
:10A9200002208AF800009AF80000012841D1584618
:10A93000C0B2052808DA002200215846C0B200F053
:10A9400047FA1BF1010B16E04FF40071484601F085
:10A95000FDFA00280FD14FF48051380001F0EEFAD3
:10A960000A2001F0C1FB4FF48051380001F0EAFAEF
:10A97000052001F0B9FB4FF40071484601F0E6FAFA
:10A9800000280CD14FF48051380001F0D7FA012093
:10A9900001F0AAFB4FF48051380001F0D3FA0022F5
:10A9A0004DF243315846C0B200F012FA02208AF844
:10A9B0000000DFF824A54FF48041504601F0C6FAAC
:10A9C0008DF80E004FF40051504601F0BFFA8DF89B
:10A9D0000D009DF810109DF80E00814237D09DF8B3
:10A9E0000E00002833D19DF80D00012812D15846E1
:10A9F000C0B2285CDFF8E0295946C9B202EB410138
:10AA00004978884206D25846C0B2295C491C58464B
:10AA1000C0B229549DF80D00002811D1DFF8B819F3
:10AA20005846C0B211F810005946C9B2695C884254
:10AA300006D25846C0B2285C411E5846C0B22954BE
:10AA40005846C0B200F001FA282001F04DFB9DF8F5
:10AA50000E008DF810009DF80D008DF816000421F1
:10AA6000300001F073FA002850D1C82001F03CFBFF
:10AA70000421300001F06AFA002831D1DFF85CA926
:10AA80000C98AAF808000B98AAF80A000020CAF847
:10AA9000100006208AF803000020CAF80C0028786D
:10AAA00000F014F98AF80000687800F00FF98AF8CD
:10AAB0000100A87800F00AF98AF80200E87800F0AE
:10AAC00005F98AF80400287900F000F98AF80500F1
:10AAD000687900F0FBF88AF80600504601F016FD90
:10AAE0004FF48051380001F029FA282001F0FCFAD7
:10AAF0004FF48051380001F025FA0421300001F0B4
:10AB000025FA0028F9D0642001F0EEFA18F10108C6
:10AB1000404680B200900E231D221A21012001F030
:10AB200030F98021300001F011FA00287FF49CAD4B
:10AB30000DB0BDE8F08F7CB54FF6E0741F2000909B
:10AB40002300DFF89C280321012000F0ACFE4FF425
:10AB5000FC6000901F23DFF88C280321292000F0DF
:10AB6000A2FE4FF4784000904FF6FF73DFF878288C
:10AB70000321512000F097FE1F20009023000022A7
:10AB80003221192000F0B2F84FF4FC6000901F232E
:10AB900001223221412000F0A9F844F208242000CB
:10ABA00000900523A0222B21012001F0EAF8DFF814
:10ABB0003C584FF6A0663000009011232A00042173
:10ABC000012000F070FE300000901123DFF82028F3
:10ABD0000421052000F067FE3000009011232A00B8
:10ABE0000421592000F05FFE300000901123DFF8AF
:10ABF000042804215D2000F056FE3000009011234F
:10AC000070A20521112000F04EFE300000901123AB
:10AC10006DA20621112000F046FE300000901123A5
:10AC2000A8A20721112000F03EFE30000090112361
:10AC3000A5A20521692000F036FE30000090112306
:10AC4000A2A20621692000F02EFE00961123A0A2E8
:10AC50000721692000F027FE00943F2310224221A3
:10AC6000492001F08EF80A220221412000F040FE26
:10AC70000A220221712000F03BFE0B221621412006
:10AC800000F036FE0B221621712000F031FE4DF24D
:10AC9000433400200090230002225221012000F0C2
:10ACA00025F800200090230003225221392000F0D3
:10ACB0001DF873BD0200D2B21209D2B20A21C0B28D
:10ACC00010F00F0001FB0200C0B270470100080045
:10ACD000C0B20A22C9B20A2391FBF3F390FBF2F14E
:10ACE00002FB110050EA0310C0B270472DE9F34F88
:10ACF00081B093461D000C9C5846C0B204285EDA11
:10AD00005FF000094846C0B2102858DA9DF80800E4
:10AD100050FA89F39BB29DF80420103292B29DF84C
:10AD2000080050FA89F189B29DF8040080B200F061
:10AD3000BEFCDFF8C4065946C9B2490100EB010266
:10AD40004946C9B212F811100F005946C9B249015B
:10AD500001444846C0B201EB4000407880465FF0B5
:10AD6000000A5046C0B208280FDAF80704D52800B8
:10AD700080B200F08AFC03E0200080B200F085FC85
:10AD8000FFB27F081AF1010AEBE700263000C0B2DB
:10AD9000082811DA5FEAC87004D5280080B200F0F4
:10ADA00074FC03E0200080B200F06FFC5FFA88F8CA
:10ADB0005FEA5808761CE9E719F10109A2E7BDE846
:10ADC000F78F000059593A004D4D3A00000000201D
:10ADD0002DE9FC4104000D0090462000C0B201287E
:10ADE00007D015D303280AD006D305280DD009D3E0
:10ADF0000EE0012662270DE0012672270AE059269F
:10AE0000522707E05926622704E05926722701E0FD
:10AE100001265227404680B200902B009BB20222AE
:10AE20003900C9B23000C0B2FFF760FF404680B2BF
:10AE300000902B009BB203223900C9B216F13800F2
:10AE4000C0B2FFF753FFBDE8F38170B586B00600CE
:10AE50003000C0B2062832DA3000C0B2012807D074
:10AE600015D303280AD006D305280DD009D30EE048
:10AE7000292406250DE0292407250AE0812405253B
:10AE800007E08124062504E08124072501E0292428
:10AE90000525D6493000C0B20A5CDFF8601501A86C
:10AEA00001F00CFD4FF6FF700090002301AA29006D
:10AEB000C9B289B22000C0B280B200F0F4FC06B082
:10AEC00070BD000044443A0068683A006D6D3A0075
:10AED00073733A00FEB800200004024000180240DC
:10AEE000000C0240000002402DE9FE4F002400202B
:10AEF000ADF806005FF000095FF0000B00F0A4FA67
:10AF000000F01AFB002000F0F1FB01F0F7FC01F06B
:10AF10001FFF00F06FF9DFF8E8542A000421052034
:10AF200000F0A6FC01F0F0FF0600701C8DF8040094
:10AF3000DFF8D074DFF8D084B8F800003880641CE3
:10AF400001F0E2FF06003988B8F8000081421FD006
:10AF50003888B8F80010884202D219F1010906E0D9
:10AF6000B8F800103888814201D2B9F10109B8F867
:10AF700000003880DFF894A44A4612B2DFF890143B
:10AF8000504601F09BFC52460421052000F070FC65
:10AF90009DF804103000C0B2814200F0AC80DFF8B0
:10AFA00074A44FF40071504600F0D0FF002811D077
:10AFB000002000900C2311224021522000F0E1FEDD
:10AFC0004FF6FF7000900C2311225121522000F007
:10AFD000D8FE10E04FF6FF7000900C2311224021A4
:10AFE000522000F0CEFE002000900C2311225121AF
:10AFF000522000F0C6FE4FF48061504600F0A6FFDC
:10B00000002811D0002000900C231122402166203E
:10B0100000F0B7FE4FF6FF7000900C231122512173
:10B02000662000F0AEFE10E04FF6FF7000900C239B
:10B0300011224021662000F0A4FE002000900C2385
:10B0400011225121662000F09CFE4FF40061504611
:10B0500000F07CFF002811D0002000900C2311226A
:10B0600040217A2000F08DFE4FF6FF7000900C23F7
:10B07000112251217A2000F084FE10E04FF6FF707B
:10B0800000900C23112240217A2000F07AFE00204B
:10B0900000900C23112251217A2000F072FE4FF40F
:10B0A0008051504600F052FF002811D0002000903F
:10B0B0000C23112240218E2000F063FE4FF6FF701A
:10B0C00000900C23112251218E2000F05AFE10E036
:10B0D0004FF6FF7000900C23112240218E2000F0CB
:10B0E00050FE002000900C23112251218E2000F0F0
:10B0F00048FE8DF80460DFF8F8A00421504600F007
:10B1000025FF002815D14FF4784000900C231B2216
:10B110007321142000F035FE002081462A0004210E
:10B12000052000F0A5FB4FF48051BB4800F006FF5E
:10B130000DE044F2082000900C231B227321142000
:10B1400000F01FFE4FF48051B34800F0FBFE4FF4B7
:10B150008071504600F0FAFE00280DD11F200090AB
:10B160000C231B2273214C2000F00BFE4FF4807146
:10B17000A94800F0E3FE0DE044F2082000900C2303
:10B180001B2273214C2000F0FCFD4FF48071A2487B
:10B1900000F0D8FE4021504600F0D8FE00280DD126
:10B1A0004FF4FC6000900C231B227321842000F0DC
:10B1B000E8FD0821504600F0C1FE0CE044F20820F2
:10B1C00000900C231B227321842000F0DAFD08215B
:10B1D000504600F0B7FE8021504600F0B7FE002830
:10B1E0007FF4ADAEBDE8FE8F88320108C4B8002000
:10B1F00000180240FEB54FF47846340000F0D1F854
:10B20000824D864FF87B0290B87B0190787B00904E
:10B210003B7BFA7A8249280001F050FB2A0000218A
:10B22000012000F025FB3A887E49280001F046FB0A
:10B230002A000121012000F01BFB7A887A492800AE
:10B2400001F03CFB2A000221012000F011FB7749AC
:10B25000280001F033FB2A000321012000F008FB45
:10B260004FF4784000904FF6E073714A06210120B8
:10B2700000F019FB1F2000904FF6FF736D4A062166
:10B28000392000F010FB4FF4FC60009000236A4A64
:10B290000621712000F007FB684A0721012000F019
:10B2A000E7FA33009BB250223E21502000F0BDFC53
:10B2B00033009BB250225E21502000F0B6FC3300D8
:10B2C0009BB220223E21502000F0DAFC33009BB2DA
:10B2D00020223E21642000F0D3FC33009BB22022C8
:10B2E0003E21782000F0CCFC33009BB220223E218E
:10B2F0008C2000F0C5FC33009BB221223E21A0200F
:10B3000000F0BEFC4FF478434F225321012000F09F
:10B310008CFC4FF4FC634F225521012000F085FC8A
:10B320001F234F225721012000F07FFC4EF67D7332
:10B33000A1226121002000F078FC4FF478400090B9
:10B3400010231E227021122000F0C5FC44F20825B3
:10B35000280000900C231B227321142000F011FD03
:10B360001F20009010231E2270214A2000F0B3FC01
:10B37000280000900C231B2273214C2000F001FDBB
:10B380004FF4FC60009010231E227021822000F0F8
:10B39000A2FC00950C231B227321842000F0F1FCF9
:10B3A000F7BD10B4264801681C4A0800000C108044
:10B3B000518000231800C0B20C280ADA1C00E4B245
:10B3C0002048041920781C00E4B2144420715B1C4E
:10B3D000F0E710BC70470000783401088CB80020FA
:10B3E000843401088C340108303401083C340108ED
:10B3F0004834010854340108243001089434010809
:10B4000060340108E6B80020E4B80020A0B80020AD
:10B410006C340108000C024000000240B4B8002067
:10B4200068320108FC320108143301082C3301088A
:10B430009C340108A4340108AC34010844330108E9
:10B44000207AFF1F107AFF1F18B587B040F604401E
:10B4500000F066FE41F2141000F062FE324C4FF430
:10B46000A0420621200000F07BFD4FF4A043002203
:10B470000221200000F0FCFC4FF4A0430222002136
:10B48000200000F02BFD002001904FF4827000900E
:10B4900000200290002005904FF4007003900020DF
:10B4A000069000200490214C6946200001F05CFDCC
:10B4B0000021200001F07BFD200001F073FD00F071
:10B4C00002F808B010BD18B589B040F6164000F07B
:10B4D00027FE174C0421200001F07CFD402006903F
:10B4E0000020029000200390002004904FF42040A0
:10B4F000079010480090012001905FF440300890C0
:10B500006A460421200001F0CDFD0421200001F055
:10B510007BFE02220421200001F0ACFE0421200069
:10B5200001F096FE0AB010BD00100240005001402C
:10B53000006402400C50014010B5DFF8784401214E
:10B54000200000F0FBFC0221200000F0F7FC10219D
:10B55000200000F0F3FC052000F0C6FD10212000C3
:10B5600000F0F0FC052000F0BFFD1021200000F0ED
:10B57000E5FC0221200000F0E1FC052000F0B4FD14
:10B580000221200000F0DEFC112000F066F81420FB
:10B5900000F0AAFDB12000F060F8052000F069F885
:10B5A0003C2000F066F83C2000F063F8B22000F088
:10B5B00054F8052000F05DF83C2000F05AF83C20DB
:10B5C00000F057F8B32000F048F8052000F051F8DB
:10B5D0003C2000F04EF83C2000F04BF8052000F035
:10B5E00048F83C2000F045F83C2000F042F8B42038
:10B5F00000F033F8032000F03CF83A2000F02DF87A
:10B60000052000F036F8202000F027F8132000F085
:10B6100024F8262000F021F8012000F02AF8292043
:10B6200000F01BF8362000F018F8702000F021F828
:10B63000002000F05BF810BD0100DFF8D0070268C1
:10B640009207FAD5DFF8C8270B00DBB21360036856
:10B65000DB07FCD51068C0B2704710B504000821A4
:10B66000DFF8500300F06EFC2000C0B2FFF7E4FFEB
:10B6700010BD10B504000821DFF8380300F05EFCAF
:10B680002000C0B2FFF7D8FF10BD10B5040008219C
:10B69000DFF8200300F052FC200080B2000AC0B2A4
:10B6A000FFF7CAFF2000C0B2FFF7C6FF10BDF8B514
:10B6B00007000C0015001E002A20FFF7CEFF3800FF
:10B6C00080B2FFF7E2FF280080B2FFF7DEFF2B20F9
:10B6D000FFF7C3FF200080B2FFF7D7FF300080B232
:10B6E000FFF7D3FF2C20FFF7B8FFF1BD70B50400C2
:10B6F0007F239F2200210020FFF7D9FF002528008B
:10B7000080B2A0280DDA00200600300080B2802828
:10B7100005DA200080B2FFF7B8FF761CF5E76D1C54
:10B72000EDE770BD38B505000C0023009BB22A0080
:10B7300092B2210089B2280080B2FFF7B8FF31BD74
:10B7400070B506000C00150023009BB2320092B2C7
:10B75000210089B2300080B2FFF7A9FF280080B233
:10B76000FFF793FF70BD2DE9F84304000D001600AC
:10B770005FF000094846C0B2102832DA55FA89F362
:10B780009BB2E21D92B255FA89F189B2200080B2D3
:10B79000FFF78DFFDFF8D0063100C9B2090101447F
:10B7A0004846C0B20844B0F50070007880460020DA
:10B7B00007003800C0B2082810DA5FEAC87004D564
:10B7C0004FF6FF70FFF761FF02E00020FFF75DFF1B
:10B7D0005FFA88F85FEA58087F1CEAE719F1010967
:10B7E000C8E7BDE8F1832DE9F84F83460D00160048
:10B7F0001F000A9C5FF0000A5046C0B2102835DADC
:10B8000055FA8AF39BB21BF1070292B255FA8AF1FC
:10B8100089B2584680B2FFF74AFFDFF84C06310084
:10B82000C9B2090101445046C0B20844B0F50070E5
:10B8300000788146002080464046C0B2082812DACF
:10B840005FEAC97004D5380080B2FFF71EFF03E03D
:10B85000200080B2FFF719FF5FFA89F95FEA590902
:10B8600018F10108E8E71AF1010AC5E7BDE8F18F10
:10B87000F8B504000D00160000273800C0B2305C97
:10B8800000280FD03800C0B2325CADB2290189B2B5
:10B890003800C0B2C00010FA84F080B2FFF763FF36
:10B8A0007F1CEAE7F1BD2DE9FC4104000D00160004
:10B8B0001F005FF000084046C0B2305C002815D081
:10B8C000BDF8200000903B009BB24046C0B2325C05
:10B8D000ADB2290189B24046C0B2C00010FA84F06E
:10B8E00080B2FFF780FF18F10108E4E7BDE8F381BB
:10B8F0002DE9F84F83460C0015005FF0000948461B
:10B90000C0B2112854DA54FA89F39B1C9BB21BF184
:10B910000F0292B254FA89F1891C89B2584680B25A
:10B92000FFF7C5FE2220DFF844152A00D2B24243B9
:10B9300001EB02034A46D2B213F8122017002A0084
:10B94000D2B200FB02F001444846C0B201EB400015
:10B95000407880465FF0000A5046C0B208280EDAF0
:10B96000F80704D54FF6FF70FFF78FFE02E00020C6
:10B97000FFF78BFEFFB27F081AF1010AECE7002601
:10B980003000C0B2082810DA5FEAC87004D54FF65C
:10B99000FF70FFF77AFE02E00020FFF776FE5FFA05
:10B9A00088F85FEA5808761CEAE719F10109A6E76A
:10B9B000BDE8F18F000C02402DE9FC4104000D00B0
:10B9C0001600300040B200280AD52D22ADB2290160
:10B9D00089B2200080B2FFF7C6FE76B2764207E059
:10B9E0002022ADB2290189B2200080B2FFF7BBFE50
:10B9F000310049B2642091FBF0F08DF80000310075
:10BA000049B20A2091FBF0F20A206F4692FBF0F156
:10BA100000FB11227A70300040B20A2290FBF2F152
:10BA200002FB11008DF802005FF000084046C0B232
:10BA3000032813DA4046C0B23A5C3032D2B2ADB21B
:10BA4000290189B24046C0B2401CC00010FA84F0FF
:10BA500080B2FFF788FE18F10108E7E7BDE8F3813F
:10BA60002DE9FC4104000D001600300000B2002852
:10BA70000AD52D22ADB2290189B2200080B2FFF78C
:10BA800072FE36B2764207E02022ADB2290189B2B9
:10BA9000200080B2FFF767FE310009B242F2107059
:10BAA00091FBF0F08DF80000310009B24FF47A708C
:10BAB00091FBF0F00A226F4690FBF2F102FB1100BD
:10BAC0007870300000B2642190FBF1F00A2290FB04
:10BAD000F2F102FB11008DF80200300000B20A21E1
:10BAE00090FBF1F00A2190FBF1F201FB12008DF8BE
:10BAF0000300300000B20A2190FBF1F201FB1200BA
:10BB00008DF804005FF000084046C0B2052813DA43
:10BB10004046C0B23A5C3032D2B2ADB2290189B2ED
:10BB20004046C0B2401CC00010FA84F080B2FFF75B
:10BB30001AFE18F10108E7E7BDE8F3812DE9FE439D
:10BB400007000C0015001E00280000B200280AD5CE
:10BB50002D22A4B2210189B2380080B2FFF703FE82
:10BB60002DB26D4207E02022A4B2210189B2380033
:10BB700080B2FFF7F8FD290009B242F2107091FB84
